Component: ARM Compiler 5.06 update 6 (build 750) Tool: armlink [4d35ed]

==============================================================================

Section Cross References

    startup_stm32f072xb.o(RESET) refers to startup_stm32f072xb.o(STACK) for __initial_sp
    startup_stm32f072xb.o(RESET) refers to startup_stm32f072xb.o(.text) for Reset_Handler
    startup_stm32f072xb.o(RESET) refers to stm32f0xx_it.o(i.NMI_Handler) for NMI_Handler
    startup_stm32f072xb.o(RESET) refers to stm32f0xx_it.o(i.HardFault_Handler) for HardFault_Handler
    startup_stm32f072xb.o(RESET) refers to stm32f0xx_it.o(i.SVC_Handler) for SVC_Handler
    startup_stm32f072xb.o(RESET) refers to stm32f0xx_it.o(i.PendSV_Handler) for PendSV_Handler
    startup_stm32f072xb.o(RESET) refers to stm32f0xx_it.o(i.SysTick_Handler) for SysTick_Handler
    startup_stm32f072xb.o(RESET) refers to stm32f0xx_it.o(i.EXTI4_15_IRQHandler) for EXTI4_15_IRQHandler
    startup_stm32f072xb.o(RESET) refers to stm32f0xx_it.o(i.USART1_IRQHandler) for USART1_IRQHandler
    startup_stm32f072xb.o(.text) refers to system_stm32f0xx.o(i.SystemInit) for SystemInit
    startup_stm32f072xb.o(.text) refers to entry.o(.ARM.Collect$$$$00000000) for __main
    l610_init.o(i.ATI_check) refers to printf2.o(i.__0printf$2) for __2printf
    l610_init.o(i.ATI_check) refers to stm32f0xx_hal.o(i.HAL_Delay) for HAL_Delay
    l610_init.o(i.AT_check) refers to printf2.o(i.__0printf$2) for __2printf
    l610_init.o(i.AT_check) refers to stm32f0xx_hal.o(i.HAL_Delay) for HAL_Delay
    l610_init.o(i.AT_check) refers to strstr.o(.text) for strstr
    l610_init.o(i.AT_check) refers to l610_init.o(i.Clear_Buffer) for Clear_Buffer
    l610_init.o(i.AT_check) refers to main.o(.bss) for RxBuffer
==============================================================================

Removing Unused input sections from the image.

    Removing startup_stm32f072xb.o(HEAP), (512 bytes).
    Removing l610_init.o(.rev16_text), (4 bytes).
    Removing l610_init.o(.revsh_text), (4 bytes).
    Removing l610_init.o(.data), (4 bytes).
    Removing l610_tcp.o(.rev16_text), (4 bytes).
    Removing l610_tcp.o(.revsh_text), (4 bytes).
    Removing main.o(.rev16_text), (4 bytes).
    Removing main.o(.revsh_text), (4 bytes).
    Removing gpio.o(.rev16_text), (4 bytes).
    Removing gpio.o(.revsh_text), (4 bytes).
    Removing usart.o(.rev16_text), (4 bytes).
    Removing usart.o(.revsh_text), (4 bytes).
    Removing usart.o(i.HAL_UART_MspDeInit), (52 bytes).
    Removing stm32f0xx_it.o(.rev16_text), (4 bytes).
    Removing stm32f0xx_it.o(.revsh_text), (4 bytes).
    Removing stm32f0xx_hal_msp.o(.rev16_text), (4 bytes).
    Removing stm32f0xx_hal_msp.o(.revsh_text), (4 bytes).
    Removing stm32f0xx_hal_tim.o(.rev16_text), (4 bytes).
==============================================================================

Image Symbol Table

    Local Symbols

    Symbol Name                              Value     Ov Type        Size  Object(Section)

    ../Drivers/STM32F0xx_HAL_Driver/Src/stm32f0xx_hal.c 0x00000000   Number         0  stm32f0xx_hal.o ABSOLUTE
    ../Drivers/STM32F0xx_HAL_Driver/Src/stm32f0xx_hal_cortex.c 0x00000000   Number         0  stm32f0xx_hal_cortex.o ABSOLUTE
    ../Drivers/STM32F0xx_HAL_Driver/Src/stm32f0xx_hal_dma.c 0x00000000   Number         0  stm32f0xx_hal_dma.o ABSOLUTE
    ../Drivers/STM32F0xx_HAL_Driver/Src/stm32f0xx_hal_exti.c 0x00000000   Number         0  stm32f0xx_hal_exti.o ABSOLUTE
    ../Drivers/STM32F0xx_HAL_Driver/Src/stm32f0xx_hal_flash.c 0x00000000   Number         0  stm32f0xx_hal_flash.o ABSOLUTE
    ../Drivers/STM32F0xx_HAL_Driver/Src/stm32f0xx_hal_flash_ex.c 0x00000000   Number         0  stm32f0xx_hal_flash_ex.o ABSOLUTE
    ../Drivers/STM32F0xx_HAL_Driver/Src/stm32f0xx_hal_gpio.c 0x00000000   Number         0  stm32f0xx_hal_gpio.o ABSOLUTE
    ../Drivers/STM32F0xx_HAL_Driver/Src/stm32f0xx_hal_i2c.c 0x00000000   Number         0  stm32f0xx_hal_i2c.o ABSOLUTE
    ../Drivers/STM32F0xx_HAL_Driver/Src/stm32f0xx_hal_i2c_ex.c 0x00000000   Number         0  stm32f0xx_hal_i2c_ex.o ABSOLUTE
    ../Drivers/STM32F0xx_HAL_Driver/Src/stm32f0xx_hal_pwr.c 0x00000000   Number         0  stm32f0xx_hal_pwr.o ABSOLUTE
    ../Drivers/STM32F0xx_HAL_Driver/Src/stm32f0xx_hal_pwr_ex.c 0x00000000   Number         0  stm32f0xx_hal_pwr_ex.o ABSOLUTE
    ../Drivers/STM32F0xx_HAL_Driver/Src/stm32f0xx_hal_rcc.c 0x00000000   Number         0  stm32f0xx_hal_rcc.o ABSOLUTE
    ../Drivers/STM32F0xx_HAL_Driver/Src/stm32f0xx_hal_rcc_ex.c 0x00000000   Number         0  stm32f0xx_hal_rcc_ex.o ABSOLUTE
    ../Drivers/STM32F0xx_HAL_Driver/Src/stm32f0xx_hal_tim.c 0x00000000   Number         0  stm32f0xx_hal_tim.o ABSOLUTE
    ../Drivers/STM32F0xx_HAL_Driver/Src/stm32f0xx_hal_tim_ex.c 0x00000000   Number         0  stm32f0xx_hal_tim_ex.o ABSOLUTE
    ../Drivers/STM32F0xx_HAL_Driver/Src/stm32f0xx_hal_uart.c 0x00000000   Number         0  stm32f0xx_hal_uart.o ABSOLUTE
    ../Drivers/STM32F0xx_HAL_Driver/Src/stm32f0xx_hal_uart_ex.c 0x00000000   Number         0  stm32f0xx_hal_uart_ex.o ABSOLUTE
    ../Src/gpio.c                            0x00000000   Number         0  gpio.o ABSOLUTE
    ../Src/main.c                            0x00000000   Number         0  main.o ABSOLUTE
    ../Src/stm32f0xx_hal_msp.c               0x00000000   Number         0  stm32f0xx_hal_msp.o ABSOLUTE
    ../Src/stm32f0xx_it.c                    0x00000000   Number         0  stm32f0xx_it.o ABSOLUTE
    ../Src/system_stm32f0xx.c                0x00000000   Number         0  system_stm32f0xx.o ABSOLUTE
    ../Src/usart.c                           0x00000000   Number         0  usart.o ABSOLUTE
    ../clib/microlib/division.c              0x00000000   Number         0  uidiv.o ABSOLUTE
    ../clib/microlib/division.c              0x00000000   Number         0  uldiv.o ABSOLUTE
    ../clib/microlib/init/entry.s            0x00000000   Number         0  entry.o ABSOLUTE
    ../clib/microlib/init/entry.s            0x00000000   Number         0  entry11b.o ABSOLUTE
    ../clib/microlib/init/entry.s            0x00000000   Number         0  entry11a.o ABSOLUTE
    ../clib/microlib/init/entry.s            0x00000000   Number         0  entry9b.o ABSOLUTE
    ../clib/microlib/init/entry.s            0x00000000   Number         0  entry9a.o ABSOLUTE
    ../clib/microlib/init/entry.s            0x00000000   Number         0  entry10a.o ABSOLUTE
    ../clib/microlib/init/entry.s            0x00000000   Number         0  entry8b.o ABSOLUTE
    ../clib/microlib/init/entry.s            0x00000000   Number         0  entry8a.o ABSOLUTE
    ../clib/microlib/init/entry.s            0x00000000   Number         0  entry7b.o ABSOLUTE
    ../clib/microlib/init/entry.s            0x00000000   Number         0  entry7a.o ABSOLUTE
    ../clib/microlib/init/entry.s            0x00000000   Number         0  entry5.o ABSOLUTE
    ../clib/microlib/init/entry.s            0x00000000   Number         0  entry2.o ABSOLUTE
    ../clib/microlib/init/entry.s            0x00000000   Number         0  entry10b.o ABSOLUTE
    ../clib/microlib/longlong.c              0x00000000   Number         0  llshl.o ABSOLUTE
    ../clib/microlib/longlong.c              0x00000000   Number         0  llushr.o ABSOLUTE
    ../clib/microlib/longlong.c              0x00000000   Number         0  llsshr.o ABSOLUTE
    ../clib/microlib/printf/printf.c         0x00000000   Number         0  printfb.o ABSOLUTE
    ../clib/microlib/printf/printf.c         0x00000000   Number         0  printf3.o ABSOLUTE
    ../clib/microlib/printf/printf.c         0x00000000   Number         0  printf1.o ABSOLUTE
    ../clib/microlib/printf/printf.c         0x00000000   Number         0  printf4.o ABSOLUTE
    ../clib/microlib/printf/printf.c         0x00000000   Number         0  printf0.o ABSOLUTE
    ../clib/microlib/printf/printf.c         0x00000000   Number         0  printf5.o ABSOLUTE
    ../clib/microlib/printf/printf.c         0x00000000   Number         0  printfa.o ABSOLUTE
    ../clib/microlib/printf/printf.c         0x00000000   Number         0  printf8.o ABSOLUTE
    ../clib/microlib/printf/printf.c         0x00000000   Number         0  printf7.o ABSOLUTE
    ../clib/microlib/printf/printf.c         0x00000000   Number         0  printf2.o ABSOLUTE
    ../clib/microlib/printf/printf.c         0x00000000   Number         0  printf6.o ABSOLUTE
    ../clib/microlib/printf/stubs.s          0x00000000   Number         0  stubs.o ABSOLUTE
    ../clib/microlib/stdio/streams.c         0x00000000   Number         0  stdout.o ABSOLUTE
    ../clib/microlib/string/memset.c         0x00000000   Number         0  memseta.o ABSOLUTE
    ../clib/microlib/string/strstr.c         0x00000000   Number         0  strstr.o ABSOLUTE
    ../clib/microlib/stubs.s                 0x00000000   Number         0  iusefp.o ABSOLUTE
    ../fplib/microlib/fpadd.c                0x00000000   Number         0  dadd.o ABSOLUTE
    ../fplib/microlib/fpdiv.c                0x00000000   Number         0  ddiv.o ABSOLUTE
    ../fplib/microlib/fpepilogue.c           0x00000000   Number         0  depilogue.o ABSOLUTE
    ../fplib/microlib/fpfix.c                0x00000000   Number         0  dfixul.o ABSOLUTE
    ../fplib/microlib/fpmul.c                0x00000000   Number         0  dmul.o ABSOLUTE
    ..\Drivers\STM32F0xx_HAL_Driver\Src\stm32f0xx_hal.c 0x00000000   Number         0  stm32f0xx_hal.o ABSOLUTE
    ..\Drivers\STM32F0xx_HAL_Driver\Src\stm32f0xx_hal_cortex.c 0x00000000   Number         0  stm32f0xx_hal_cortex.o ABSOLUTE
    ..\Drivers\STM32F0xx_HAL_Driver\Src\stm32f0xx_hal_dma.c 0x00000000   Number         0  stm32f0xx_hal_dma.o ABSOLUTE
    ..\Drivers\STM32F0xx_HAL_Driver\Src\stm32f0xx_hal_exti.c 0x00000000   Number         0  stm32f0xx_hal_exti.o ABSOLUTE
    ..\Drivers\STM32F0xx_HAL_Driver\Src\stm32f0xx_hal_flash.c 0x00000000   Number         0  stm32f0xx_hal_flash.o ABSOLUTE
    ..\Drivers\STM32F0xx_HAL_Driver\Src\stm32f0xx_hal_flash_ex.c 0x00000000   Number         0  stm32f0xx_hal_flash_ex.o ABSOLUTE
    ..\Drivers\STM32F0xx_HAL_Driver\Src\stm32f0xx_hal_gpio.c 0x00000000   Number         0  stm32f0xx_hal_gpio.o ABSOLUTE
    ..\Drivers\STM32F0xx_HAL_Driver\Src\stm32f0xx_hal_i2c.c 0x00000000   Number         0  stm32f0xx_hal_i2c.o ABSOLUTE
    ..\Drivers\STM32F0xx_HAL_Driver\Src\stm32f0xx_hal_i2c_ex.c 0x00000000   Number         0  stm32f0xx_hal_i2c_ex.o ABSOLUTE
    ..\Drivers\STM32F0xx_HAL_Driver\Src\stm32f0xx_hal_pwr.c 0x00000000   Number         0  stm32f0xx_hal_pwr.o ABSOLUTE
    ..\Drivers\STM32F0xx_HAL_Driver\Src\stm32f0xx_hal_pwr_ex.c 0x00000000   Number         0  stm32f0xx_hal_pwr_ex.o ABSOLUTE
    ..\Drivers\STM32F0xx_HAL_Driver\Src\stm32f0xx_hal_rcc.c 0x00000000   Number         0  stm32f0xx_hal_rcc.o ABSOLUTE
    ..\Drivers\STM32F0xx_HAL_Driver\Src\stm32f0xx_hal_rcc_ex.c 0x00000000   Number         0  stm32f0xx_hal_rcc_ex.o ABSOLUTE
    ..\Drivers\STM32F0xx_HAL_Driver\Src\stm32f0xx_hal_tim.c 0x00000000   Number         0  stm32f0xx_hal_tim.o ABSOLUTE
    ..\Drivers\STM32F0xx_HAL_Driver\Src\stm32f0xx_hal_tim_ex.c 0x00000000   Number         0  stm32f0xx_hal_tim_ex.o ABSOLUTE
    ..\Drivers\STM32F0xx_HAL_Driver\Src\stm32f0xx_hal_uart.c 0x00000000   Number         0  stm32f0xx_hal_uart.o ABSOLUTE
    ..\Drivers\STM32F0xx_HAL_Driver\Src\stm32f0xx_hal_uart_ex.c 0x00000000   Number         0  stm32f0xx_hal_uart_ex.o ABSOLUTE
    ..\Fibcom-L610\Src\L610_Init.c           0x00000000   Number         0  l610_init.o ABSOLUTE
    ..\Fibcom-L610\Src\L610_TCP.c            0x00000000   Number         0  l610_tcp.o ABSOLUTE
    ..\Src\gpio.c                            0x00000000   Number         0  gpio.o ABSOLUTE
    ..\Src\main.c                            0x00000000   Number         0  main.o ABSOLUTE
    ..\Src\stm32f0xx_hal_msp.c               0x00000000   Number         0  stm32f0xx_hal_msp.o ABSOLUTE
    ..\Src\stm32f0xx_it.c                    0x00000000   Number         0  stm32f0xx_it.o ABSOLUTE
    ..\Src\system_stm32f0xx.c                0x00000000   Number         0  system_stm32f0xx.o ABSOLUTE
    ..\Src\usart.c                           0x00000000   Number         0  usart.o ABSOLUTE
    ..\\Fibcom-L610\\Src\\L610_Init.c        0x00000000   Number         0  l610_init.o ABSOLUTE
    ..\\Fibcom-L610\\Src\\L610_TCP.c         0x00000000   Number         0  l610_tcp.o ABSOLUTE
    cdrcmple.s                               0x00000000   Number         0  cdrcmple.o ABSOLUTE
    dc.s                                     0x00000000   Number         0  dc.o ABSOLUTE
    handlers.s                               0x00000000   Number         0  handlers.o ABSOLUTE
    init.s                                   0x00000000   Number         0  init.o ABSOLUTE
    startup_stm32f072xb.s                    0x00000000   Number         0  startup_stm32f072xb.o ABSOLUTE
    RESET                                    0x08000000   Section      192  startup_stm32f072xb.o(RESET)
    .ARM.Collect$$$$00000000                 0x080000c0   Section        0  entry.o(.ARM.Collect$$$$00000000)
    .ARM.Collect$$$$00000001                 0x080000c0   Section        4  entry2.o(.ARM.Collect$$$$00000001)
    .ARM.Collect$$$$00000004                 0x080000c4   Section        4  entry5.o(.ARM.Collect$$$$00000004)
    .ARM.Collect$$$$00000008                 0x080000c8   Section        0  entry7b.o(.ARM.Collect$$$$00000008)
    .ARM.Collect$$$$0000000A                 0x080000c8   Section        0  entry8b.o(.ARM.Collect$$$$0000000A)
    .ARM.Collect$$$$0000000B                 0x080000c8   Section        8  entry9a.o(.ARM.Collect$$$$0000000B)
    .ARM.Collect$$$$0000000D                 0x080000d0   Section        0  entry10a.o(.ARM.Collect$$$$0000000D)
    .ARM.Collect$$$$0000000F                 0x080000d0   Section        0  entry11a.o(.ARM.Collect$$$$0000000F)
    .ARM.Collect$$$$00002712                 0x080000d0   Section        4  entry2.o(.ARM.Collect$$$$00002712)
    __lit__00000000                          0x080000d0   Data           4  entry2.o(.ARM.Collect$$$$00002712)
    .text                                    0x080000d4   Section       28  startup_stm32f072xb.o(.text)
    .text                                    0x080000f0   Section        0  uidiv.o(.text)
    .text                                    0x0800011c   Section        0  uldiv.o(.text)
    .text                                    0x0800017c   Section        0  llushr.o(.text)
    .text                                    0x0800019e   Section        0  memseta.o(.text)
    .text                                    0x080001c2   Section        0  strstr.o(.text)
    .text                                    0x080001ea   Section        0  llshl.o(.text)
    .text                                    0x0800020c   Section       36  init.o(.text)
    i.ATI_check                              0x08000230   Section        0  l610_init.o(i.ATI_check)
    i.AT_check                               0x0800024c   Section        0  l610_init.o(i.AT_check)
    i.CPIN_check                             0x080002a4   Section        0  l610_init.o(i.CPIN_check)
    i.CSQ_check                              0x0800030c   Section        0  l610_init.o(i.CSQ_check)
    i.Check_socket                           0x08000330   Section        0  l610_tcp.o(i.Check_socket)
    i.Clear_Buffer                           0x08000394   Section        0  l610_init.o(i.Clear_Buffer)
    i.Creat_TCP                              0x080003b8   Section        0  l610_tcp.o(i.Creat_TCP)
    i.EPS_check                              0x0800043c   Section        0  l610_init.o(i.EPS_check)
    i.EXTI4_15_IRQHandler                    0x080004c4   Section        0  stm32f0xx_it.o(i.EXTI4_15_IRQHandler)
    i.End_TCP                                0x080004d0   Section        0  l610_tcp.o(i.End_TCP)
    i.Error_Handler                          0x08000538   Section        0  main.o(i.Error_Handler)
    i.Fibcom_L610_init                       0x0800053a   Section        0  l610_init.o(i.Fibcom_L610_init)
    i.GPRS_check                             0x080005b0   Section        0  l610_init.o(i.GPRS_check)
    i.HAL_DMA_Abort_IT                       0x0800062c   Section        0  stm32f0xx_hal_dma.o(i.HAL_DMA_Abort_IT)
    i.HAL_Delay                              0x08000674   Section        0  stm32f0xx_hal.o(i.HAL_Delay)
    i.HAL_GPIO_EXTI_Callback                 0x08000698   Section        0  stm32f0xx_it.o(i.HAL_GPIO_EXTI_Callback)
    i.HAL_GPIO_EXTI_IRQHandler               0x080006b8   Section        0  stm32f0xx_hal_gpio.o(i.HAL_GPIO_EXTI_IRQHandler)
    i.HAL_GPIO_Init                          0x080006d0   Section        0  stm32f0xx_hal_gpio.o(i.HAL_GPIO_Init)
    i.HAL_GPIO_TogglePin                     0x08000828   Section        0  stm32f0xx_hal_gpio.o(i.HAL_GPIO_TogglePin)
    i.HAL_GPIO_WritePin                      0x08000834   Section        0  stm32f0xx_hal_gpio.o(i.HAL_GPIO_WritePin)
    i.HAL_GetTick                            0x08000840   Section        0  stm32f0xx_hal.o(i.HAL_GetTick)
    i.HAL_IncTick                            0x0800084c   Section        0  stm32f0xx_hal.o(i.HAL_IncTick)
    i.HAL_Init                               0x0800085c   Section        0  stm32f0xx_hal.o(i.HAL_Init)
    i.HAL_InitTick                           0x0800087c   Section        0  stm32f0xx_hal.o(i.HAL_InitTick)
    i.HAL_MspInit                            0x080008c0   Section        0  stm32f0xx_hal_msp.o(i.HAL_MspInit)
    i.HAL_NVIC_EnableIRQ                     0x080008e8   Section        0  stm32f0xx_hal_cortex.o(i.HAL_NVIC_EnableIRQ)
    i.HAL_NVIC_SetPriority                   0x08000900   Section        0  stm32f0xx_hal_cortex.o(i.HAL_NVIC_SetPriority)
    i.HAL_RCCEx_PeriphCLKConfig              0x08000908   Section        0  stm32f0xx_hal_rcc_ex.o(i.HAL_RCCEx_PeriphCLKConfig)
    i.HAL_RCC_ClockConfig                    0x08000a28   Section        0  stm32f0xx_hal_rcc.o(i.HAL_RCC_ClockConfig)
    i.HAL_RCC_GetPCLK1Freq                   0x08000b3c   Section        0  stm32f0xx_hal_rcc.o(i.HAL_RCC_GetPCLK1Freq)
    i.HAL_RCC_GetSysClockFreq                0x08000b5c   Section        0  stm32f0xx_hal_rcc.o(i.HAL_RCC_GetSysClockFreq)
    i.HAL_RCC_OscConfig                      0x08000bf0   Section        0  stm32f0xx_hal_rcc.o(i.HAL_RCC_OscConfig)
    i.HAL_SYSTICK_Config                     0x08000ff4   Section        0  stm32f0xx_hal_cortex.o(i.HAL_SYSTICK_Config)
    i.HAL_UARTEx_WakeupCallback              0x08001024   Section        0  stm32f0xx_hal_uart_ex.o(i.HAL_UARTEx_WakeupCallback)
    i.HAL_UART_ErrorCallback                 0x08001026   Section        0  stm32f0xx_hal_uart.o(i.HAL_UART_ErrorCallback)
    i.HAL_UART_IRQHandler                    0x08001028   Section        0  stm32f0xx_hal_uart.o(i.HAL_UART_IRQHandler)
    i.HAL_UART_Init                          0x08001188   Section        0  stm32f0xx_hal_uart.o(i.HAL_UART_Init)
    i.HAL_UART_MspInit                       0x080011f4   Section        0  usart.o(i.HAL_UART_MspInit)
    i.HAL_UART_Receive_IT                    0x08001268   Section        0  stm32f0xx_hal_uart.o(i.HAL_UART_Receive_IT)
    i.HAL_UART_RxCpltCallback                0x0800132c   Section        0  stm32f0xx_hal_uart.o(i.HAL_UART_RxCpltCallback)
    i.HAL_UART_Transmit                      0x0800132e   Section        0  stm32f0xx_hal_uart.o(i.HAL_UART_Transmit)
    i.HAL_UART_TxCpltCallback                0x080013fc   Section        0  stm32f0xx_hal_uart.o(i.HAL_UART_TxCpltCallback)
    i.HardFault_Handler                      0x080013fe   Section        0  stm32f0xx_it.o(i.HardFault_Handler)
    i.Hex_set                                0x08001400   Section        0  l610_init.o(i.Hex_set)
    i.IP_allo                                0x08001468   Section        0  l610_tcp.o(i.IP_allo)
    i.IP_release                             0x0800152c   Section        0  l610_tcp.o(i.IP_release)
    i.MX_GPIO_Init                           0x08001590   Section        0  gpio.o(i.MX_GPIO_Init)
    i.MX_USART1_UART_Init                    0x08001638   Section        0  usart.o(i.MX_USART1_UART_Init)
    i.NMI_Handler                            0x08001670   Section        0  stm32f0xx_it.o(i.NMI_Handler)
    i.OPEN_MOUDLE                            0x08001672   Section        0  l610_init.o(i.OPEN_MOUDLE)
    i.PendSV_Handler                         0x08001696   Section        0  stm32f0xx_it.o(i.PendSV_Handler)
    i.SVC_Handler                            0x08001698   Section        0  stm32f0xx_it.o(i.SVC_Handler)
    i.Send_Data                              0x0800169c   Section        0  l610_tcp.o(i.Send_Data)
    i.SysTick_Handler                        0x080016e0   Section        0  stm32f0xx_it.o(i.SysTick_Handler)
    i.SystemClock_Config                     0x080016e8   Section        0  main.o(i.SystemClock_Config)
    i.SystemInit                             0x08001746   Section        0  system_stm32f0xx.o(i.SystemInit)
    i.UART_AdvFeatureConfig                  0x08001748   Section        0  stm32f0xx_hal_uart.o(i.UART_AdvFeatureConfig)
    i.UART_CheckIdleState                    0x08001814   Section        0  stm32f0xx_hal_uart.o(i.UART_CheckIdleState)
    i.UART_DMAAbortOnError                   0x08001874   Section        0  stm32f0xx_hal_uart.o(i.UART_DMAAbortOnError)
    UART_DMAAbortOnError                     0x08001875   Thumb Code    20  stm32f0xx_hal_uart.o(i.UART_DMAAbortOnError)
    i.UART_EndRxTransfer                     0x08001888   Section        0  stm32f0xx_hal_uart.o(i.UART_EndRxTransfer)
    UART_EndRxTransfer                       0x08001889   Thumb Code    32  stm32f0xx_hal_uart.o(i.UART_EndRxTransfer)
    i.UART_RxISR_16BIT                       0x080018a8   Section        0  stm32f0xx_hal_uart.o(i.UART_RxISR_16BIT)
    UART_RxISR_16BIT                         0x080018a9   Thumb Code    88  stm32f0xx_hal_uart.o(i.UART_RxISR_16BIT)
    i.UART_RxISR_8BIT                        0x08001900   Section        0  stm32f0xx_hal_uart.o(i.UART_RxISR_8BIT)
    UART_RxISR_8BIT                          0x08001901   Thumb Code    88  stm32f0xx_hal_uart.o(i.UART_RxISR_8BIT)
    i.UART_SetConfig                         0x08001958   Section        0  stm32f0xx_hal_uart.o(i.UART_SetConfig)
    i.UART_WaitOnFlagUntilTimeout            0x08001ad4   Section        0  stm32f0xx_hal_uart.o(i.UART_WaitOnFlagUntilTimeout)
    i.USART1_IRQHandler                      0x08001b70   Section        0  stm32f0xx_it.o(i.USART1_IRQHandler)
    i.WAIT_OPEN                              0x08001ba4   Section        0  l610_init.o(i.WAIT_OPEN)
    i.__0printf$2                            0x08001bc0   Section        0  printf2.o(i.__0printf$2)
    i.__ARM_common_ll_muluu                  0x08001be0   Section        0  stm32f0xx_hal_rcc.o(i.__ARM_common_ll_muluu)
    i.__NVIC_SetPriority                     0x08001c10   Section        0  stm32f0xx_hal_cortex.o(i.__NVIC_SetPriority)
    __NVIC_SetPriority                       0x08001c11   Thumb Code    60  stm32f0xx_hal_cortex.o(i.__NVIC_SetPriority)
    i.__scatterload_copy                     0x08001c54   Section       14  handlers.o(i.__scatterload_copy)
    i.__scatterload_null                     0x08001c62   Section        2  handlers.o(i.__scatterload_null)
    i.__scatterload_zeroinit                 0x08001c64   Section       14  handlers.o(i.__scatterload_zeroinit)
    i._printf_core                           0x08001c72   Section        0  printf2.o(i._printf_core)
    _printf_core                             0x08001c73   Thumb Code   210  printf2.o(i._printf_core)
    i.fputc                                  0x08001d44   Section        0  usart.o(i.fputc)
    i.main                                   0x08001d60   Section        0  main.o(i.main)
    .constdata                               0x08001dbc   Section       16  system_stm32f0xx.o(.constdata)
    .constdata                               0x08001dcc   Section        8  system_stm32f0xx.o(.constdata)
    .data                                    0x20000000   Section        8  l610_init.o(.data)
    .data                                    0x20000008   Section       17  main.o(.data)
    .data                                    0x20000019   Section        1  main.o(.data)
    .data                                    0x2000001a   Section        1  main.o(.data)
    .data                                    0x2000001c   Section       12  stm32f0xx_hal.o(.data)
    .data                                    0x20000028   Section        4  system_stm32f0xx.o(.data)
    .data                                    0x2000002c   Section        4  stdout.o(.data)
    .bss                                     0x20000030   Section      200  main.o(.bss)
    .bss                                     0x200000f8   Section      128  usart.o(.bss)
    STACK                                    0x20000178   Section     1024  startup_stm32f072xb.o(STACK)

    Global Symbols

    Symbol Name                              Value     Ov Type        Size  Object(Section)

    BuildAttributes$$THM_ISAv3M$S$PE$A:L22$X:L11$S22$IEEE1$IW$USESV6$~STKCKD$USESV7$~SHL$OSPACE$ROPI$EBA8$MICROLIB$REQ8$PRES8$EABIv2 0x00000000   Number         0  anon$$obj.o ABSOLUTE
    __ARM_use_no_argv                        0x00000000   Number         0  main.o ABSOLUTE
    _printf_a                                0x00000000   Number         0  stubs.o ABSOLUTE
    _printf_c                                0x00000000   Number         0  stubs.o ABSOLUTE
    _printf_charcount                        0x00000000   Number         0  stubs.o ABSOLUTE
    _printf_d                                0x00000000   Number         0  stubs.o ABSOLUTE
    _printf_e                                0x00000000   Number         0  stubs.o ABSOLUTE
    _printf_f                                0x00000000   Number         0  stubs.o ABSOLUTE
    _printf_flags                            0x00000000   Number         0  stubs.o ABSOLUTE
    _printf_fp_dec                           0x00000000   Number         0  stubs.o ABSOLUTE
    _printf_fp_hex                           0x00000000   Number         0  stubs.o ABSOLUTE
    _printf_g                                0x00000000   Number         0  stubs.o ABSOLUTE
    _printf_i                                0x00000000   Number         0  stubs.o ABSOLUTE
    _printf_int_dec                          0x00000000   Number         0  stubs.o ABSOLUTE
    _printf_l                                0x00000000   Number         0  stubs.o ABSOLUTE
    _printf_lc                               0x00000000   Number         0  stubs.o ABSOLUTE
    _printf_ll                               0x00000000   Number         0  stubs.o ABSOLUTE
    _printf_lld                              0x00000000   Number         0  stubs.o ABSOLUTE
    _printf_lli                              0x00000000   Number         0  stubs.o ABSOLUTE
    _printf_llo                              0x00000000   Number         0  stubs.o ABSOLUTE
    _printf_llu                              0x00000000   Number         0  stubs.o ABSOLUTE
    _printf_llx                              0x00000000   Number         0  stubs.o ABSOLUTE
    _printf_longlong_dec                     0x00000000   Number         0  stubs.o ABSOLUTE
    _printf_longlong_hex                     0x00000000   Number         0  stubs.o ABSOLUTE
    _printf_longlong_oct                     0x00000000   Number         0  stubs.o ABSOLUTE
    _printf_ls                               0x00000000   Number         0  stubs.o ABSOLUTE
    _printf_mbtowc                           0x00000000   Number         0  stubs.o ABSOLUTE
    _printf_n                                0x00000000   Number         0  stubs.o ABSOLUTE
    _printf_o                                0x00000000   Number         0  stubs.o ABSOLUTE
    _printf_p                                0x00000000   Number         0  stubs.o ABSOLUTE
    _printf_percent                          0x00000000   Number         0  stubs.o ABSOLUTE
    _printf_pre_padding                      0x00000000   Number         0  stubs.o ABSOLUTE
    _printf_return_value                     0x00000000   Number         0  stubs.o ABSOLUTE
    _printf_s                                0x00000000   Number         0  stubs.o ABSOLUTE
    _printf_sizespec                         0x00000000   Number         0  stubs.o ABSOLUTE
    _printf_str                              0x00000000   Number         0  stubs.o ABSOLUTE
    _printf_truncate_signed                  0x00000000   Number         0  stubs.o ABSOLUTE
    _printf_truncate_unsigned                0x00000000   Number         0  stubs.o ABSOLUTE
    _printf_u                                0x00000000   Number         0  stubs.o ABSOLUTE
    _printf_wc                               0x00000000   Number         0  stubs.o ABSOLUTE
    _printf_wctomb                           0x00000000   Number         0  stubs.o ABSOLUTE
    _printf_widthprec                        0x00000000   Number         0  stubs.o ABSOLUTE
    _printf_x                                0x00000000   Number         0  stubs.o ABSOLUTE
    __cpp_initialize__aeabi_                  - Undefined Weak Reference
    __cxa_finalize                            - Undefined Weak Reference
    __decompress                              - Undefined Weak Reference
    _clock_init                               - Undefined Weak Reference
    _microlib_exit                            - Undefined Weak Reference
    __Vectors_Size                           0x000000c0   Number         0  startup_stm32f072xb.o ABSOLUTE
    __Vectors                                0x08000000   Data           4  startup_stm32f072xb.o(RESET)
    __Vectors_End                            0x080000c0   Data           0  startup_stm32f072xb.o(RESET)
    __main                                   0x080000c1   Thumb Code     0  entry.o(.ARM.Collect$$$$00000000)
    _main_stk                                0x080000c1   Thumb Code     0  entry2.o(.ARM.Collect$$$$00000001)
    _main_scatterload                        0x080000c5   Thumb Code     0  entry5.o(.ARM.Collect$$$$00000004)
    __main_after_scatterload                 0x080000c9   Thumb Code     0  entry5.o(.ARM.Collect$$$$00000004)
    _main_clock                              0x080000c9   Thumb Code     0  entry7b.o(.ARM.Collect$$$$00000008)
    _main_cpp_init                           0x080000c9   Thumb Code     0  entry8b.o(.ARM.Collect$$$$0000000A)
    _main_init                               0x080000c9   Thumb Code     0  entry9a.o(.ARM.Collect$$$$0000000B)
    __rt_final_cpp                           0x080000d1   Thumb Code     0  entry10a.o(.ARM.Collect$$$$0000000D)
    __rt_final_exit                          0x080000d1   Thumb Code     0  entry11a.o(.ARM.Collect$$$$0000000F)
    Reset_Handler                            0x080000d5   Thumb Code     8  startup_stm32f072xb.o(.text)
    ADC1_COMP_IRQHandler                     0x080000e7   Thumb Code     0  startup_stm32f072xb.o(.text)
    CEC_CAN_IRQHandler                       0x080000e7   Thumb Code     0  startup_stm32f072xb.o(.text)
    DMA1_Channel1_IRQHandler                 0x080000e7   Thumb Code     0  startup_stm32f072xb.o(.text)
    DMA1_Channel2_3_IRQHandler               0x080000e7   Thumb Code     0  startup_stm32f072xb.o(.text)
    DMA1_Channel4_5_6_7_IRQHandler           0x080000e7   Thumb Code     0  startup_stm32f072xb.o(.text)
    EXTI0_1_IRQHandler                       0x080000e7   Thumb Code     0  startup_stm32f072xb.o(.text)
    EXTI2_3_IRQHandler                       0x080000e7   Thumb Code     0  startup_stm32f072xb.o(.text)
    FLASH_IRQHandler                         0x080000e7   Thumb Code     0  startup_stm32f072xb.o(.text)
    I2C1_IRQHandler                          0x080000e7   Thumb Code     0  startup_stm32f072xb.o(.text)
    I2C2_IRQHandler                          0x080000e7   Thumb Code     0  startup_stm32f072xb.o(.text)
    PVD_VDDIO2_IRQHandler                    0x080000e7   Thumb Code     0  startup_stm32f072xb.o(.text)
    RCC_CRS_IRQHandler                       0x080000e7   Thumb Code     0  startup_stm32f072xb.o(.text)
    RTC_IRQHandler                           0x080000e7   Thumb Code     0  startup_stm32f072xb.o(.text)
    SPI1_IRQHandler                          0x080000e7   Thumb Code     0  startup_stm32f072xb.o(.text)
    SPI2_IRQHandler                          0x080000e7   Thumb Code     0  startup_stm32f072xb.o(.text)
    TIM14_IRQHandler                         0x080000e7   Thumb Code     0  startup_stm32f072xb.o(.text)
    TIM15_IRQHandler                         0x080000e7   Thumb Code     0  startup_stm32f072xb.o(.text)
    TIM16_IRQHandler                         0x080000e7   Thumb Code     0  startup_stm32f072xb.o(.text)
    TIM17_IRQHandler                         0x080000e7   Thumb Code     0  startup_stm32f072xb.o(.text)
    TIM1_BRK_UP_TRG_COM_IRQHandler           0x080000e7   Thumb Code     0  startup_stm32f072xb.o(.text)
    TIM1_CC_IRQHandler                       0x080000e7   Thumb Code     0  startup_stm32f072xb.o(.text)
    TIM2_IRQHandler                          0x080000e7   Thumb Code     0  startup_stm32f072xb.o(.text)
    TIM3_IRQHandler                          0x080000e7   Thumb Code     0  startup_stm32f072xb.o(.text)
    TIM6_DAC_IRQHandler                      0x080000e7   Thumb Code     0  startup_stm32f072xb.o(.text)
    TIM7_IRQHandler                          0x080000e7   Thumb Code     0  startup_stm32f072xb.o(.text)
    TSC_IRQHandler                           0x080000e7   Thumb Code     0  startup_stm32f072xb.o(.text)
    USART2_IRQHandler                        0x080000e7   Thumb Code     0  startup_stm32f072xb.o(.text)
    USART3_4_IRQHandler                      0x080000e7   Thumb Code     0  startup_stm32f072xb.o(.text)
    USB_IRQHandler                           0x080000e7   Thumb Code     0  startup_stm32f072xb.o(.text)
    WWDG_IRQHandler                          0x080000e7   Thumb Code     0  startup_stm32f072xb.o(.text)
    __aeabi_uidiv                            0x080000f1   Thumb Code     0  uidiv.o(.text)
    __aeabi_uidivmod                         0x080000f1   Thumb Code    44  uidiv.o(.text)
    __aeabi_uldivmod                         0x0800011d   Thumb Code    96  uldiv.o(.text)
    __aeabi_llsr                             0x0800017d   Thumb Code    34  llushr.o(.text)
    _ll_ushift_r                             0x0800017d   Thumb Code     0  llushr.o(.text)
    __aeabi_memset                           0x0800019f   Thumb Code    14  memseta.o(.text)
    __aeabi_memset4                          0x0800019f   Thumb Code     0  memseta.o(.text)
    __aeabi_memset8                          0x0800019f   Thumb Code     0  memseta.o(.text)
    __aeabi_memclr                           0x080001ad   Thumb Code     4  memseta.o(.text)
    __aeabi_memclr4                          0x080001ad   Thumb Code     0  memseta.o(.text)
    __aeabi_memclr8                          0x080001ad   Thumb Code     0  memseta.o(.text)
    _memset$wrapper                          0x080001b1   Thumb Code    18  memseta.o(.text)
    strstr                                   0x080001c3   Thumb Code    40  strstr.o(.text)
    __aeabi_llsl                             0x080001eb   Thumb Code    32  llshl.o(.text)
    _ll_shift_l                              0x080001eb   Thumb Code     0  llshl.o(.text)
    __scatterload                            0x0800020d   Thumb Code    28  init.o(.text)
    __scatterload_rt2                        0x0800020d   Thumb Code     0  init.o(.text)
    ATI_check                                0x08000231   Thumb Code    18  l610_init.o(i.ATI_check)
    AT_check                                 0x0800024d   Thumb Code    68  l610_init.o(i.AT_check)
    CPIN_check                               0x080002a5   Thumb Code    66  l610_init.o(i.CPIN_check)
    CSQ_check                                0x0800030d   Thumb Code    22  l610_init.o(i.CSQ_check)
    Check_socket                             0x08000331   Thumb Code    64  l610_tcp.o(i.Check_socket)
    Clear_Buffer                             0x08000395   Thumb Code    28  l610_init.o(i.Clear_Buffer)
    Creat_TCP                                0x080003b9   Thumb Code    62  l610_tcp.o(i.Creat_TCP)
    EPS_check                                0x0800043d   Thumb Code    80  l610_init.o(i.EPS_check)
    EXTI4_15_IRQHandler                      0x080004c5   Thumb Code    12  stm32f0xx_it.o(i.EXTI4_15_IRQHandler)
    End_TCP                                  0x080004d1   Thumb Code    64  l610_tcp.o(i.End_TCP)
    Error_Handler                            0x08000539   Thumb Code     2  main.o(i.Error_Handler)
    Fibcom_L610_init                         0x0800053b   Thumb Code   118  l610_init.o(i.Fibcom_L610_init)
    GPRS_check                               0x080005b1   Thumb Code    80  l610_init.o(i.GPRS_check)
    HAL_DMA_Abort_IT                         0x0800062d   Thumb Code    72  stm32f0xx_hal_dma.o(i.HAL_DMA_Abort_IT)
    HAL_Delay                                0x08000675   Thumb Code    32  stm32f0xx_hal.o(i.HAL_Delay)
    HAL_GPIO_EXTI_Callback                   0x08000699   Thumb Code    28  stm32f0xx_it.o(i.HAL_GPIO_EXTI_Callback)
    HAL_GPIO_EXTI_IRQHandler                 0x080006b9   Thumb Code    18  stm32f0xx_hal_gpio.o(i.HAL_GPIO_EXTI_IRQHandler)
    HAL_GPIO_Init                            0x080006d1   Thumb Code   314  stm32f0xx_hal_gpio.o(i.HAL_GPIO_Init)
    HAL_GPIO_TogglePin                       0x08000829   Thumb Code    12  stm32f0xx_hal_gpio.o(i.HAL_GPIO_TogglePin)
    HAL_GPIO_WritePin                        0x08000835   Thumb Code    12  stm32f0xx_hal_gpio.o(i.HAL_GPIO_WritePin)
    HAL_GetTick                              0x08000841   Thumb Code     6  stm32f0xx_hal.o(i.HAL_GetTick)
    HAL_IncTick                              0x0800084d   Thumb Code    12  stm32f0xx_hal.o(i.HAL_IncTick)
    HAL_Init                                 0x0800085d   Thumb Code    26  stm32f0xx_hal.o(i.HAL_Init)
    HAL_InitTick                             0x0800087d   Thumb Code    58  stm32f0xx_hal.o(i.HAL_InitTick)
    HAL_MspInit                              0x080008c1   Thumb Code    34  stm32f0xx_hal_msp.o(i.HAL_MspInit)
    HAL_NVIC_EnableIRQ                       0x080008e9   Thumb Code    18  stm32f0xx_hal_cortex.o(i.HAL_NVIC_EnableIRQ)
    HAL_NVIC_SetPriority                     0x08000901   Thumb Code     8  stm32f0xx_hal_cortex.o(i.HAL_NVIC_SetPriority)
    HAL_RCCEx_PeriphCLKConfig                0x08000909   Thumb Code   274  stm32f0xx_hal_rcc_ex.o(i.HAL_RCCEx_PeriphCLKConfig)
    HAL_RCC_ClockConfig                      0x08000a29   Thumb Code   254  stm32f0xx_hal_rcc.o(i.HAL_RCC_ClockConfig)
    HAL_RCC_GetPCLK1Freq                     0x08000b3d   Thumb Code    20  stm32f0xx_hal_rcc.o(i.HAL_RCC_GetPCLK1Freq)
    HAL_RCC_GetSysClockFreq                  0x08000b5d   Thumb Code   102  stm32f0xx_hal_rcc.o(i.HAL_RCC_GetSysClockFreq)
    HAL_RCC_OscConfig                        0x08000bf1   Thumb Code  1028  stm32f0xx_hal_rcc.o(i.HAL_RCC_OscConfig)
    HAL_SYSTICK_Config                       0x08000ff5   Thumb Code    38  stm32f0xx_hal_cortex.o(i.HAL_SYSTICK_Config)
    HAL_UARTEx_WakeupCallback                0x08001025   Thumb Code     2  stm32f0xx_hal_uart_ex.o(i.HAL_UARTEx_WakeupCallback)
    HAL_UART_ErrorCallback                   0x08001027   Thumb Code     2  stm32f0xx_hal_uart.o(i.HAL_UART_ErrorCallback)
    HAL_UART_IRQHandler                      0x08001029   Thumb Code   342  stm32f0xx_hal_uart.o(i.HAL_UART_IRQHandler)
    HAL_UART_Init                            0x08001189   Thumb Code   106  stm32f0xx_hal_uart.o(i.HAL_UART_Init)
    HAL_UART_MspInit                         0x080011f5   Thumb Code   106  usart.o(i.HAL_UART_MspInit)
    HAL_UART_Receive_IT                      0x08001269   Thumb Code   182  stm32f0xx_hal_uart.o(i.HAL_UART_Receive_IT)
    HAL_UART_RxCpltCallback                  0x0800132d   Thumb Code     2  stm32f0xx_hal_uart.o(i.HAL_UART_RxCpltCallback)
    HAL_UART_Transmit                        0x0800132f   Thumb Code   206  stm32f0xx_hal_uart.o(i.HAL_UART_Transmit)
    HAL_UART_TxCpltCallback                  0x080013fd   Thumb Code     2  stm32f0xx_hal_uart.o(i.HAL_UART_TxCpltCallback)
    HardFault_Handler                        0x080013ff   Thumb Code     2  stm32f0xx_it.o(i.HardFault_Handler)
    Hex_set                                  0x08001401   Thumb Code    66  l610_init.o(i.Hex_set)
    IP_allo                                  0x08001469   Thumb Code   114  l610_tcp.o(i.IP_allo)
    IP_release                               0x0800152d   Thumb Code    64  l610_tcp.o(i.IP_release)
    MX_GPIO_Init                             0x08001591   Thumb Code   156  gpio.o(i.MX_GPIO_Init)
    MX_USART1_UART_Init                      0x08001639   Thumb Code    48  usart.o(i.MX_USART1_UART_Init)
    NMI_Handler                              0x08001671   Thumb Code     2  stm32f0xx_it.o(i.NMI_Handler)
    OPEN_MOUDLE                              0x08001673   Thumb Code    36  l610_init.o(i.OPEN_MOUDLE)
    PendSV_Handler                           0x08001697   Thumb Code     2  stm32f0xx_it.o(i.PendSV_Handler)
    SVC_Handler                              0x08001699   Thumb Code     2  stm32f0xx_it.o(i.SVC_Handler)
    Send_Data                                0x0800169d   Thumb Code    44  l610_tcp.o(i.Send_Data)
    SysTick_Handler                          0x080016e1   Thumb Code     8  stm32f0xx_it.o(i.SysTick_Handler)
    SystemClock_Config                       0x080016e9   Thumb Code    94  main.o(i.SystemClock_Config)
    SystemInit                               0x08001747   Thumb Code     2  system_stm32f0xx.o(i.SystemInit)
    UART_AdvFeatureConfig                    0x08001749   Thumb Code   202  stm32f0xx_hal_uart.o(i.UART_AdvFeatureConfig)
    UART_CheckIdleState                      0x08001815   Thumb Code    90  stm32f0xx_hal_uart.o(i.UART_CheckIdleState)
    UART_SetConfig                           0x08001959   Thumb Code   342  stm32f0xx_hal_uart.o(i.UART_SetConfig)
    UART_WaitOnFlagUntilTimeout              0x08001ad5   Thumb Code   156  stm32f0xx_hal_uart.o(i.UART_WaitOnFlagUntilTimeout)
    USART1_IRQHandler                        0x08001b71   Thumb Code    36  stm32f0xx_it.o(i.USART1_IRQHandler)
    WAIT_OPEN                                0x08001ba5   Thumb Code    24  l610_init.o(i.WAIT_OPEN)
    __0printf$2                              0x08001bc1   Thumb Code    24  printf2.o(i.__0printf$2)
    __1printf$2                              0x08001bc1   Thumb Code     0  printf2.o(i.__0printf$2)
    __2printf                                0x08001bc1   Thumb Code     0  printf2.o(i.__0printf$2)
    __ARM_common_ll_muluu                    0x08001be1   Thumb Code    48  stm32f0xx_hal_rcc.o(i.__ARM_common_ll_muluu)
    __scatterload_copy                       0x08001c55   Thumb Code    14  handlers.o(i.__scatterload_copy)
    __scatterload_null                       0x08001c63   Thumb Code     2  handlers.o(i.__scatterload_null)
    __scatterload_zeroinit                   0x08001c65   Thumb Code    14  handlers.o(i.__scatterload_zeroinit)
    fputc                                    0x08001d45   Thumb Code    18  usart.o(i.fputc)
    main                                     0x08001d61   Thumb Code    84  main.o(i.main)
    AHBPrescTable                            0x08001dbc   Data          16  system_stm32f0xx.o(.constdata)
    APBPrescTable                            0x08001dcc   Data           8  system_stm32f0xx.o(.constdata)
    Region$$Table$$Base                      0x08001dd4   Number         0  anon$$obj.o(Region$$Table)
    Region$$Table$$Limit                     0x08001df4   Number         0  anon$$obj.o(Region$$Table)
    strx                                     0x20000000   Data           4  l610_init.o(.data)
    extstrx                                  0x20000004   Data           4  l610_init.o(.data)
    Res                                      0x20000008   Data           1  main.o(.data)
    senddata                                 0x20000009   Data          16  main.o(.data)
    Rxcouter                                 0x20000019   Data           1  main.o(.data)
    pow_flg                                  0x2000001a   Data           1  main.o(.data)
    uwTickFreq                               0x2000001c   Data           1  stm32f0xx_hal.o(.data)
    uwTickPrio                               0x20000020   Data           4  stm32f0xx_hal.o(.data)
    uwTick                                   0x20000024   Data           4  stm32f0xx_hal.o(.data)
    SystemCoreClock                          0x20000028   Data           4  system_stm32f0xx.o(.data)
    __stdout                                 0x2000002c   Data           4  stdout.o(.data)
    RxBuffer                                 0x20000030   Data         200  main.o(.bss)
    huart1                                   0x200000f8   Data         128  usart.o(.bss)
    __initial_sp                             0x20000578   Data           0  startup_stm32f072xb.o(STACK)



==============================================================================

Memory Map of the image

  Image Entry point : 0x080000c1

  Load Region LR_IROM1 (Base: 0x08000000, Size: 0x00001e24, Max: 0x00020000, ABSOLUTE)

    Execution Region ER_IROM1 (Exec base: 0x08000000, Load base: 0x08000000, Size: 0x00001df4, Max: 0x00020000, ABSOLUTE)

    Exec Addr    Load Addr    Size         Type   Attr      Idx    E Section Name        Object

    0x08000000   0x08000000   0x000000c0   Data   RO            3    RESET               startup_stm32f072xb.o
    0x080000c0   0x080000c0   0x00000000   Code   RO         2423  * .ARM.Collect$$$$00000000  mc_p.l(entry.o)
    0x080000c0   0x080000c0   0x00000004   Code   RO         2697    .ARM.Collect$$$$00000001  mc_p.l(entry2.o)
    0x080000c4   0x080000c4   0x00000004   Code   RO         2700    .ARM.Collect$$$$00000004  mc_p.l(entry5.o)
    0x080000c8   0x080000c8   0x00000000   Code   RO         2702    .ARM.Collect$$$$00000008  mc_p.l(entry7b.o)
    0x080000c8   0x080000c8   0x00000000   Code   RO         2704    .ARM.Collect$$$$0000000A  mc_p.l(entry8b.o)
    0x080000c8   0x080000c8   0x00000008   Code   RO         2705    .ARM.Collect$$$$0000000B  mc_p.l(entry9a.o)
    0x080000d0   0x080000d0   0x00000000   Code   RO         2707    .ARM.Collect$$$$0000000D  mc_p.l(entry10a.o)
    0x080000d0   0x080000d0   0x00000000   Code   RO         2709    .ARM.Collect$$$$0000000F  mc_p.l(entry11a.o)
    0x080000d0   0x080000d0   0x00000004   Code   RO         2698    .ARM.Collect$$$$00002712  mc_p.l(entry2.o)
    0x080000d4   0x080000d4   0x0000001c   Code   RO            4    .text               startup_stm32f072xb.o
    0x080000f0   0x080000f0   0x0000002c   Code   RO         2426    .text               mc_p.l(uidiv.o)
    0x0800011c   0x0800011c   0x00000060   Code   RO         2428    .text               mc_p.l(uldiv.o)
    0x0800017c   0x0800017c   0x00000022   Code   RO         2430    .text               mc_p.l(llushr.o)
    0x0800019e   0x0800019e   0x00000024   Code   RO         2432    .text               mc_p.l(memseta.o)
    0x080001c2   0x080001c2   0x00000028   Code   RO         2434    .text               mc_p.l(strstr.o)
    0x080001ea   0x080001ea   0x00000020   Code   RO         2712    .text               mc_p.l(llshl.o)
    0x0800020a   0x0800020a   0x00000002   PAD
    0x0800020c   0x0800020c   0x00000024   Code   RO         2725    .text               mc_p.l(init.o)
    0x08000230   0x08000230   0x0000001c   Code   RO           12    i.ATI_check         l610_init.o
    0x0800024c   0x0800024c   0x00000058   Code   RO           13    i.AT_check          l610_init.o
    0x080002a4   0x080002a4   0x00000068   Code   RO           14    i.CPIN_check        l610_init.o
    0x0800030c   0x0800030c   0x00000024   Code   RO           15    i.CSQ_check         l610_init.o
    0x08000330   0x08000330   0x00000064   Code   RO          204    i.Check_socket      l610_tcp.o
    0x08000394   0x08000394   0x00000024   Code   RO           16    i.Clear_Buffer      l610_init.o
    0x080003b8   0x080003b8   0x00000084   Code   RO          205    i.Creat_TCP         l610_tcp.o
    0x0800043c   0x0800043c   0x00000088   Code   RO           17    i.EPS_check         l610_init.o
    0x080004c4   0x080004c4   0x0000000c   Code   RO          360    i.EXTI4_15_IRQHandler  stm32f0xx_it.o
    0x080004d0   0x080004d0   0x00000068   Code   RO          206    i.End_TCP           l610_tcp.o
    0x08000538   0x08000538   0x00000002   Code   RO          255    i.Error_Handler     main.o
    0x0800053a   0x0800053a   0x00000076   Code   RO           18    i.Fibcom_L610_init  l610_init.o
    0x080005b0   0x080005b0   0x0000007c   Code   RO           19    i.GPRS_check        l610_init.o
    0x0800062c   0x0800062c   0x00000048   Code   RO         1800    i.HAL_DMA_Abort_IT  stm32f0xx_hal_dma.o
    0x08000674   0x08000674   0x00000024   Code   RO         1079    i.HAL_Delay         stm32f0xx_hal.o
    0x08000698   0x08000698   0x00000020   Code   RO          361    i.HAL_GPIO_EXTI_Callback  stm32f0xx_it.o
    0x080006b8   0x080006b8   0x00000018   Code   RO         1737    i.HAL_GPIO_EXTI_IRQHandler  stm32f0xx_hal_gpio.o
    0x080006d0   0x080006d0   0x00000158   Code   RO         1738    i.HAL_GPIO_Init     stm32f0xx_hal_gpio.o
    0x08000828   0x08000828   0x0000000c   Code   RO         1741    i.HAL_GPIO_TogglePin  stm32f0xx_hal_gpio.o
    0x08000834   0x08000834   0x0000000c   Code   RO         1742    i.HAL_GPIO_WritePin  stm32f0xx_hal_gpio.o
    0x08000840   0x08000840   0x0000000c   Code   RO         1083    i.HAL_GetTick       stm32f0xx_hal.o
    0x0800084c   0x0800084c   0x00000010   Code   RO         1089    i.HAL_IncTick       stm32f0xx_hal.o
    0x0800085c   0x0800085c   0x00000020   Code   RO         1090    i.HAL_Init          stm32f0xx_hal.o
    0x0800087c   0x0800087c   0x00000044   Code   RO         1091    i.HAL_InitTick      stm32f0xx_hal.o
    0x080008c0   0x080008c0   0x00000028   Code   RO          426    i.HAL_MspInit       stm32f0xx_hal_msp.o
    0x080008e8   0x080008e8   0x00000018   Code   RO         1897    i.HAL_NVIC_EnableIRQ  stm32f0xx_hal_cortex.o
    0x08000900   0x08000900   0x00000008   Code   RO         1901    i.HAL_NVIC_SetPriority  stm32f0xx_hal_cortex.o
    0x08000908   0x08000908   0x00000120   Code   RO          999    i.HAL_RCCEx_PeriphCLKConfig  stm32f0xx_hal_rcc_ex.o
    0x08000a28   0x08000a28   0x00000114   Code   RO          895    i.HAL_RCC_ClockConfig  stm32f0xx_hal_rcc.o
    0x08000b3c   0x08000b3c   0x00000020   Code   RO          902    i.HAL_RCC_GetPCLK1Freq  stm32f0xx_hal_rcc.o
    0x08000b5c   0x08000b5c   0x00000094   Code   RO          903    i.HAL_RCC_GetSysClockFreq  stm32f0xx_hal_rcc.o
    0x08000bf0   0x08000bf0   0x00000404   Code   RO          906    i.HAL_RCC_OscConfig  stm32f0xx_hal_rcc.o
    0x08000ff4   0x08000ff4   0x00000030   Code   RO         1905    i.HAL_SYSTICK_Config  stm32f0xx_hal_cortex.o
    0x08001024   0x08001024   0x00000002   Code   RO          849    i.HAL_UARTEx_WakeupCallback  stm32f0xx_hal_uart_ex.o
    0x08001026   0x08001026   0x00000002   Code   RO          498    i.HAL_UART_ErrorCallback  stm32f0xx_hal_uart.o
    0x08001028   0x08001028   0x00000160   Code   RO          501    i.HAL_UART_IRQHandler  stm32f0xx_hal_uart.o
    0x08001188   0x08001188   0x0000006a   Code   RO          502    i.HAL_UART_Init     stm32f0xx_hal_uart.o
    0x080011f2   0x080011f2   0x00000002   PAD
    0x080011f4   0x080011f4   0x00000074   Code   RO          317    i.HAL_UART_MspInit  usart.o
    0x08001268   0x08001268   0x000000c4   Code   RO          507    i.HAL_UART_Receive_IT  stm32f0xx_hal_uart.o
    0x0800132c   0x0800132c   0x00000002   Code   RO          509    i.HAL_UART_RxCpltCallback  stm32f0xx_hal_uart.o
    0x0800132e   0x0800132e   0x000000ce   Code   RO          511    i.HAL_UART_Transmit  stm32f0xx_hal_uart.o
    0x080013fc   0x080013fc   0x00000002   Code   RO          514    i.HAL_UART_TxCpltCallback  stm32f0xx_hal_uart.o
    0x080013fe   0x080013fe   0x00000002   Code   RO          362    i.HardFault_Handler  stm32f0xx_it.o
    0x08001400   0x08001400   0x00000068   Code   RO           20    i.Hex_set           l610_init.o
    0x08001468   0x08001468   0x000000c4   Code   RO          207    i.IP_allo           l610_tcp.o
    0x0800152c   0x0800152c   0x00000064   Code   RO          208    i.IP_release        l610_tcp.o
    0x08001590   0x08001590   0x000000a8   Code   RO          296    i.MX_GPIO_Init      gpio.o
    0x08001638   0x08001638   0x00000038   Code   RO          318    i.MX_USART1_UART_Init  usart.o
    0x08001670   0x08001670   0x00000002   Code   RO          363    i.NMI_Handler       stm32f0xx_it.o
    0x08001672   0x08001672   0x00000024   Code   RO           21    i.OPEN_MOUDLE       l610_init.o
    0x08001696   0x08001696   0x00000002   Code   RO          364    i.PendSV_Handler    stm32f0xx_it.o
    0x08001698   0x08001698   0x00000002   Code   RO          365    i.SVC_Handler       stm32f0xx_it.o
    0x0800169a   0x0800169a   0x00000002   PAD
    0x0800169c   0x0800169c   0x00000044   Code   RO          209    i.Send_Data         l610_tcp.o
    0x080016e0   0x080016e0   0x00000008   Code   RO          366    i.SysTick_Handler   stm32f0xx_it.o
    0x080016e8   0x080016e8   0x0000005e   Code   RO          256    i.SystemClock_Config  main.o
    0x08001746   0x08001746   0x00000002   Code   RO         2392    i.SystemInit        system_stm32f0xx.o
    0x08001748   0x08001748   0x000000ca   Code   RO          516    i.UART_AdvFeatureConfig  stm32f0xx_hal_uart.o
    0x08001812   0x08001812   0x00000002   PAD
    0x08001814   0x08001814   0x00000060   Code   RO          517    i.UART_CheckIdleState  stm32f0xx_hal_uart.o
    0x08001874   0x08001874   0x00000014   Code   RO          518    i.UART_DMAAbortOnError  stm32f0xx_hal_uart.o
    0x08001888   0x08001888   0x00000020   Code   RO          528    i.UART_EndRxTransfer  stm32f0xx_hal_uart.o
    0x080018a8   0x080018a8   0x00000058   Code   RO          530    i.UART_RxISR_16BIT  stm32f0xx_hal_uart.o
    0x08001900   0x08001900   0x00000058   Code   RO          531    i.UART_RxISR_8BIT   stm32f0xx_hal_uart.o
    0x08001958   0x08001958   0x0000017c   Code   RO          532    i.UART_SetConfig    stm32f0xx_hal_uart.o
    0x08001ad4   0x08001ad4   0x0000009c   Code   RO          535    i.UART_WaitOnFlagUntilTimeout  stm32f0xx_hal_uart.o
    0x08001b70   0x08001b70   0x00000034   Code   RO          367    i.USART1_IRQHandler  stm32f0xx_it.o
    0x08001ba4   0x08001ba4   0x0000001c   Code   RO           22    i.WAIT_OPEN         l610_init.o
    0x08001bc0   0x08001bc0   0x00000020   Code   RO         2503    i.__0printf$2       mc_p.l(printf2.o)
    0x08001be0   0x08001be0   0x00000030   Code   RO          980    i.__ARM_common_ll_muluu  stm32f0xx_hal_rcc.o
    0x08001c10   0x08001c10   0x00000044   Code   RO         1907    i.__NVIC_SetPriority  stm32f0xx_hal_cortex.o
    0x08001c54   0x08001c54   0x0000000e   Code   RO         2735    i.__scatterload_copy  mc_p.l(handlers.o)
    0x08001c62   0x08001c62   0x00000002   Code   RO         2736    i.__scatterload_null  mc_p.l(handlers.o)
    0x08001c64   0x08001c64   0x0000000e   Code   RO         2737    i.__scatterload_zeroinit  mc_p.l(handlers.o)
    0x08001c72   0x08001c72   0x000000d2   Code   RO         2510    i._printf_core      mc_p.l(printf2.o)
    0x08001d44   0x08001d44   0x0000001c   Code   RO          319    i.fputc             usart.o
    0x08001d60   0x08001d60   0x0000005c   Code   RO          257    i.main              main.o
    0x08001dbc   0x08001dbc   0x00000010   Data   RO         2393    .constdata          system_stm32f0xx.o
    0x08001dcc   0x08001dcc   0x00000008   Data   RO         2394    .constdata          system_stm32f0xx.o
    0x08001dd4   0x08001dd4   0x00000020   Data   RO         2733    Region$$Table       anon$$obj.o


    Execution Region RW_IRAM1 (Exec base: 0x20000000, Load base: 0x08001df4, Size: 0x00000578, Max: 0x00004000, ABSOLUTE)

    Exec Addr    Load Addr    Size         Type   Attr      Idx    E Section Name        Object

    0x20000000   0x08001df4   0x00000008   Data   RW           23    .data               l610_init.o
    0x20000008   0x08001dfc   0x00000011   Data   RW          259    .data               main.o
    0x20000019   0x08001e0d   0x00000001   Data   RW          260    .data               main.o
    0x2000001a   0x08001e0e   0x00000001   Data   RW          261    .data               main.o
    0x2000001b   0x08001e0f   0x00000001   PAD
    0x2000001c   0x08001e10   0x0000000c   Data   RW         1097    .data               stm32f0xx_hal.o
    0x20000028   0x08001e1c   0x00000004   Data   RW         2395    .data               system_stm32f0xx.o
    0x2000002c   0x08001e20   0x00000004   Data   RW         2711    .data               mc_p.l(stdout.o)
    0x20000030        -       0x000000c8   Zero   RW          258    .bss                main.o
    0x200000f8        -       0x00000080   Zero   RW          320    .bss                usart.o
    0x20000178        -       0x00000400   Zero   RW            1    STACK               startup_stm32f072xb.o


==============================================================================

Image component sizes


      Code (inc. data)   RO Data    RW Data    ZI Data      Debug   Object Name

       168         12          0          0          0        939   gpio.o
       838        232          0          8          0     469994   l610_init.o
       700        288          0          0          0       3160   l610_tcp.o
       188          8          0         19        200       2365   main.o
        28          8        192          0       1024        644   startup_stm32f072xb.o
       164         30          0         12          0       8637   stm32f0xx_hal.o
       148         24          0          0          0      10385   stm32f0xx_hal_cortex.o
        72          0          0          0          0       1131   stm32f0xx_hal_dma.o
       392         36          0          0          0       3496   stm32f0xx_hal_gpio.o
        40          6          0          0          0        830   stm32f0xx_hal_msp.o
      1532         96          0          0          0       4965   stm32f0xx_hal_rcc.o
       288         14          0          0          0       1536   stm32f0xx_hal_rcc_ex.o
      1928         68          0          0          0      12526   stm32f0xx_hal_uart.o
         2          0          0          0          0       1008   stm32f0xx_hal_uart_ex.o
       112         20          0          0          0       3638   stm32f0xx_it.o
         2          0         24          4          0       1139   system_stm32f0xx.o
       200         28          0          0        128       2186   usart.o

    ----------------------------------------------------------------------
      6808        870        248         44       1352     528579   Object Totals
         0          0         32          0          0          0   (incl. Generated)
         6          0          0          1          0          0   (incl. Padding)

    ----------------------------------------------------------------------

      Code (inc. data)   RO Data    RW Data    ZI Data      Debug   Library Member Name

         0          0          0          0          0          0   entry.o
         0          0          0          0          0          0   entry10a.o
         0          0          0          0          0          0   entry11a.o
         8          4          0          0          0          0   entry2.o
         4          0          0          0          0          0   entry5.o
         0          0          0          0          0          0   entry7b.o
         0          0          0          0          0          0   entry8b.o
         8          4          0          0          0          0   entry9a.o
        30          0          0          0          0          0   handlers.o
        36          8          0          0          0         68   init.o
        32          0          0          0          0         68   llshl.o
        34          0          0          0          0         68   llushr.o
        36          0          0          0          0        100   memseta.o
       242          8          0          0          0        168   printf2.o
         0          0          0          4          0          0   stdout.o
        40          0          0          0          0         72   strstr.o
        44          0          0          0          0         72   uidiv.o
        96          0          0          0          0         84   uldiv.o

    ----------------------------------------------------------------------
       612         24          0          4          0        700   Library Totals
         2          0          0          0          0          0   (incl. Padding)

    ----------------------------------------------------------------------

      Code (inc. data)   RO Data    RW Data    ZI Data      Debug   Library Name

       610         24          0          4          0        700   mc_p.l

    ----------------------------------------------------------------------
       612         24          0          4          0        700   Library Totals

    ----------------------------------------------------------------------

==============================================================================


      Code (inc. data)   RO Data    RW Data    ZI Data      Debug   

      7420        894        248         48       1352     526219   Grand Totals
      7420        894        248         48       1352     526219   ELF Image Totals
      7420        894        248         48          0          0   ROM Totals

==============================================================================

    Total RO  Size (Code + RO Data)                 7668 (   7.49kB)
    Total RW  Size (RW Data + ZI Data)              1400 (   1.37kB)
    Total ROM Size (Code + RO Data + RW Data)       7716 (   7.54kB)

==============================================================================

