:020000040800F2
:1000000078050020D500000871160008FF130008CD
:1000100000000000000000000000000000000000E0
:100020000000000000000000000000009916000819
:10003000000000000000000097160008E11600080C
:10004000E7000008E7000008E7000008E7000008F4
:10005000E7000008E7000008E7000008C504000802
:10006000E7000008E7000008E7000008E7000008D4
:10007000E7000008E7000008E7000008E7000008C4
:10008000E7000008E7000008E7000008E7000008B4
:10009000E7000008E7000008E7000008E7000008A4
:1000A000E7000008E7000008E7000008711B0008EF
:1000B000E7000008E7000008E7000008E700000884
:1000C0000348854600F0A2F800480047611D00087B
:1000D000780500200448804704480047FEE7FEE713
:1000E000FEE7FEE7FEE7FEE747170008C10000084D
:1000F00030B50B46014600202022012409E00D46C0
:10010000D5409D4205D31D469540491B2546954047
:1001100040191546521E002DF1DC30BDF0B51FB45C
:100120000646002082B005464024019100901BE065
:10013000019922460F46304600F020F8049A059BAC
:10014000801A994110D310461946224600F04DF806
:10015000361A8F410197224601200021009F00F0AE
:1001600044F838184D4100902046641E0028DFDC1A
:10017000019B00982946324607B0F0BD10B5202AF1
:1001800004DB0846203AD040002110BD0B46D34086
:10019000D0402024A21A91400843194610BDD2B283
:1001A00001E00270401C491EFBD270470022F6E7B6
:1001B00010B513460A4604461946FFF7F0FF2046DD
:1001C00010BD30B505462A460B4610781C78521CE7
:1001D0005B1C002801D0A042F7D0002C03D00028DF
:1001E00002D06D1CEFE7284630BD10B5202A04DB95
:1001F0000146203A9140002010BD914020239C1AD6
:100200000346E3401943904010BD0000064C012511
:10021000064E05E0E36807CC2B430C3C98471034AE
:10022000B442F7D3FFF750FFD41D0008F41D0008B7
:1002300010B504A001F0C4FCFF20F53000F01AFA5C
:1002400010BD00004154490D0A00000070B510A017
:1002500001F0B6FCFF26F536304600F00BFA0F4DE4
:100260000DA1281DFFF7ADFF0D4C0BE000F092F83B
:1002700007A001F0A5FC304600F0FCF906A1281DFE
:10028000FFF79FFF20600028F0D000F083F870BDDA
:1002900041540D0A000000004F4B000030000020C8
:1002A0000000002070B510A001F08AFCFF25F53594
:1002B000284600F0DFF90FA11248FFF782FF124C29
:1002C0000BE000F067F808A001F07AFC284600F087
:1002D000D1F908A10B48FFF774FF20600028F0D087
:1002E00000F058F870BD000041542B4350494E3F78
:1002F0000D0A00002B4350494E3A205245414459C3
:1003000000000000300000200000002010B505A013
:1003100001F056FC00F03EF87D20C00000F0AAF984
:1003200010BD000041542B4353510D0A0000000042
:1003300070B500F02FF80EA001F042FCFF20F53060
:1003400000F098F90EA11148FFF73BFF104C7D25F6
:10035000ED00206007E0284600F08CF908A10B486A
:10036000FFF72FFF20600028F5D000F013F870BDD4
:1003700041542B4D49504F50454E3F0D0A0000004F
:100380002B4D49504F50454E3A00000030000020A0
:100390000000002010B5064A00200146054C1378E5
:1003A00002E02154401CC0B29842FAD3117010BD33
:1003B000190000203000002070B5FFF7EBFF0EA001
:1003C00001F0FEFB164800F055F916A11948FFF799
:1003D000F8FE194C7D25ED00206007E0284600F06E
:1003E00049F910A11348FFF7ECFE20600028F5D072
:1003F000FFF7D0FF70BD000041542B4D49504F50C6
:10040000454E3D312C2C2234372E39322E313137A6
:100410002E313633222C33303030302C300D0A0060
:10042000B80B00002B4D49504F50454E3A20312C0F
:1004300031000000300000200000002070B513A043
:1004400001F0BEFBFF25F535284600F013F912A197
:100450001448FFF7B6FE144C0BE0FFF79BFF13A008
:1004600001F0AEFB284600F005F90BA10D48FFF79F
:10047000A8FE206010A10B48FFF7A3FE606003CC2C
:10048000083C0843E9D0FFF785FF70BD41542B437A
:10049000455245473F0D0A002B43455245473A20F8
:1004A000302C3100300000200000002041542B434C
:1004B000475245473F0D0A002B43455245473A20D6
:1004C000302C350010B50120400300F0F5F810BDC8
:1004D00070B5FFF75FFF7D20000100F0CBF80CA0A6
:1004E00001F06EFB0EA11248FFF76BFE114C7D254B
:1004F000ED00206007E0284600F0BCF808A10C4899
:10050000FFF75FFE20600028F5D0FFF743FF70BDC6
:1005100041542B4D4950434C4F53453D310D0A003A
:100520002B4D4950434C4F53453A20312C3000005D
:100530003000002000000020704710B5FFF72AFFB0
:10054000FFF784FEC82000F095F8FFF7DFFEC82013
:1005500000F090F8FFF7DAFEC82000F08BF8FFF704
:10056000D5FEC82000F086F8FFF762FEC82000F034
:1005700081F8FFF797FEC82000F07CF800F018F82B
:10058000C82000F077F8FFF759FFC82000F072F894
:1005900000F036FFC82000F06DF800F065FFC820BD
:1005A00000F068F8FFF7B2FEC82000F063F810BD55
:1005B00070B513A001F004FBFF25F535284600F0C7
:1005C00059F812A11448FFF7FCFD144C0BE0FFF79B
:1005D000E1FE0BA001F0F4FA284600F04BF80BA165
:1005E0000D48FFF7EEFD20600DA10B48FFF7E9FD78
:1005F000606003CC083C0843E9D0FFF7CBFE70BD38
:1006000041542B43475245473F0D0A002B43475265
:1006100045473A20302C31003000002000000020F7
:100620002B43475245473A20302C350070B5002403
:10063000014620314A78022A03D004218163012433
:1006400016E0026813680E25AB4313600268136856
:100650005B085B0013600122056C1346AB40C56B61
:100660006B604A7000220A70416B002900D08847F5
:10067000204670BD70B5044600F0E2F80546601CE7
:1006800002D004480078241800F0DAF8401BA04299
:10069000FAD370BD1C000020012110B54903884227
:1006A00007D109202021C00600F0BEF80149012031
:1006B000087010BD1A00002010B504494A690242B2
:1006C00002D04861FFF7E8FF10BD000000040140C0
:1006D000F8B5002393E0224601249C40A446224022
:1006E0007ED04C68022C01D0122C0CD1DC08A40066
:1006F00027183C6A5D07ED0E0F26AE40B4430E6925
:10070000AE4026433E6205685E000324B4400F7984
:10071000A543BF07BF0FB7402F4307604D68012DAA
:1007200005D0022D03D0112D01D0122D0ED18568D8
:10073000CF68A543B7402F43876047686546AF43FE
:100740000D79ED06ED0F9D403D434560C568A5431D
:100750008C68B4402C43C4604C68E4004ED52B4CEC
:10076000A56901263543A561A4699D08344000941C
:10077000274CAD002F19BC689D072E0F0F25B540E3
:10078000AC430925ED06A84201D1002514E0214D16
:10079000A84201D101250FE01F4DA84201D1022539
:1007A0000AE01E4DA84201D1032505E01C4DA842D8
:1007B00001D1042500E00525B5402543BD60194C55
:1007C00025684E689543F60300D515432560656896
:1007D0004E689543B60300D515436560A56800E0F3
:1007E0000CE04E689543F60200D51543A560E56818
:1007F0004E689543B60200D51543E5605B1C0A6858
:100800001446DA4000D066E7F8BD00000010024050
:10081000000001400004004800080048000C0048A7
:10082000001000480004014042690A4200D0090457
:1008300081617047002A01D08161704781627047F1
:1008400001488068704700001C0000200248816851
:1008500002788918816070471C00002010B5064896
:100860000168102211430160002000F007F800F039
:1008700027F8002010BD00000020024070B504469B
:100880000D4D7D202978C000FFF732FC01460B4852
:100890000068FFF72DFC00F0ADFB002809D1042C07
:1008A00007D200222146401E00F02AF800206C608A
:1008B00070BD012070BD00001C0000202800002039
:1008C00008B508488169012211438161816911409D
:1008D0000091C26901040A43C261C06908400090E6
:1008E00008BD000000100240002805DBC106C90E4B
:1008F00001208840014908607047000000E100E0E5
:1009000010B501F085F910BDF8B504460068434DF7
:10091000C00352D5E8690026C00007D4E96928045D
:100920000143E961E9690140012600913C48016801
:10093000C90510D40168821511430160FFF780FFDB
:10094000074604E0FFF77CFFC01B642824D8344826
:100950000068C005F6D5286A03273F02384020D03A
:100960006168394081421CD0286A2A6AB843012153
:1009700009040A432A622A6A8A432A622862C00753
:100980000FD0FFF75DFF009008E0FFF759FF0099D7
:10099000411A2448814201D90320F8BD286A800702
:1009A000F3D5286A6168B84308432862002E04D052
:1009B000E869012109078843E8612078C00705D06C
:1009C000286BA1688008800008432863207880078E
:1009D00006D5286B032109048843E168084328638E
:1009E0002078800605D5286B1021884321690843AB
:1009F00028632068800305D5286B80218843A1697E
:100A0000084328632088400505D5286B402188438A
:100A10006169084328630020F8BD0000001002400F
:100A20000070004088130000F8B50F4606005FD044
:100A30003D4D2868C007C00FB84209D22868400859
:100A40004000384328602868C007C00FB8424FD123
:100A50003068364C81070CD5400704D56068072103
:100A60000902084360606068F0218843B168084368
:100A700060603078C0072CD07068012810D0022840
:100A800011D0032812D021688907002930DA616863
:100A90008908890001436160FFF7D2FE009011E0F0
:100AA00021688903F1E721688901EEE7616BC903D9
:100AB000EBE7FFF7C5FE0099411A1D48814201D9B5
:100AC0000320F8BD60680C210840716889008842E5
:100AD000EFD12868C007C00FB8420BD9286840087A
:100AE0004000384328602868C007C00FB84201D0D2
:100AF0000120F8BD3078400706D56068072109025B
:100B00008843F1680843606000F028F86168094A8A
:100B10000906090F515CC840074908600020FFF72B
:100B2000ADFE0020F8BD0000002002400010024091
:100B300088130000BC1D0008280000200448054957
:100B400000684968044A4905490F515CC84070472C
:100B50002800002000100240CC1D000830B519A369
:100B60000FCB89B06C460FC41AA30FCB0FC41D4A1C
:100B700051680C200B4603401B48042B05D01B4D2D
:100B8000082B04D00C2B00D1284609B030BD8B02B5
:100B90001B0F6C46E45CD26A04AB1207120FC90348
:100BA0009A5C890F022901D0032901D0002301E0BA
:100BB000002328460021FFF7B1FA214601F010F882
:100BC000E3E7000002030405060708090A0B0C0D01
:100BD0000E0F10100102030405060708090A0B0C8A
:100BE0000D0E0F100010024000127A00006CDC02A3
:100BF000FEB5040070D02078F94EFA4DC00748D0F9
:100C000068680007800F01281FD068680007800F00
:100C1000022804D16868C003800F022815D06168DB
:100C2000012919D001208004002901D0052917D0FD
:100C30002968B143296029688143296060680028D8
:100C40001BD0FFF7FDFD074613E02868800320D581
:100C500060680028CED01CE0286830432860EDE7AB
:100C6000296801432960F7E7FFF7EAFDC01B642804
:100C700070D828688003F7D50BE0FFF7E1FD074641
:100C800004E0FFF7DDFDC01B6428F1D8286880036D
:100C9000F7D4207880073FD568680007800F14D00C
:100CA00068680007800F022804D16868C003800FBD
:100CB00001280AD0E068002828681ED001210843D6
:100CC0002860FFF7BDFD07460CE0286880070CD5BB
:100CD000E068012800D108E080E1FFF7B1FDC01B0A
:100CE0000228C5D828688007F7D52868F8218843E6
:100CF0002169C900084328600EE0400840002860D0
:100D0000FFF79EFD074604E0FFF79AFDC01B02288F
:100D1000AED828688007F7D42078000723D5E0698B
:100D20000028686A0FD0012108436862FFF788FD38
:100D3000074604E0FFF784FDC01B022898D8686AC4
:100D40008007F7D50FE0400840006862FFF778FDA4
:100D5000074605E0C3E0FFF773FDC01B022887D8F4
:100D6000686A8007F7D4207804274007002861DAF2
:100D700000200190E869C00008D4E969B806014381
:100D8000E961E969014001200091019096480168FC
:100D9000C90511D40168821511430160FFF750FDA8
:100DA000009005E0FFF74CFD0099401A642898D8A0
:100DB0008D480068C005F5D5A06801280AD0002834
:100DC00001D0052811D0286A400840002862286A0E
:100DD000B84302E0286A012108432862A06800287D
:100DE00012D0FFF72DFD00900AE0286A38432862F0
:100DF000F0E7FFF725FD0099411A7C4881426ED843
:100E0000286A8007F5D50DE0FFF71AFD009006E08F
:100E1000FFF716FD0099411A744881425FD8286A8D
:100E20008007F5D40198002804D0E9690120000763
:100E30008143E9612078C00635D5606901280CD06E
:100E4000401D686B24D038436863686B40084000DD
:100E50006863FFF7F5FC074622E0686B3843686378
:100E6000686B012108436863FFF7EAFC074604E06A
:100E7000FFF7E6FCC01B022831D8686B8007F7D566
:100E8000686BF8218843A169C900084368630AE0D8
:100E9000B8436863F4E7FFF7D3FCC01B02281ED8F1
:100EA000686B8007F7D42078800637D5686800071C
:100EB000800F032814D068680007800F022804D12F
:100EC0006868C003800F03280AD0206A0028686B76
:100ED00016D030436863FFF7B3FC06460CE062E0CF
:100EE000686BC0031AD5206A012877D116E0FFF796
:100EF000A7FC801B022856D8686BC003F7D50DE00D
:100F0000B0436863FFF79CFC064604E0FFF798FCDB
:100F1000801B022847D8686BC003F7D4606A00289A
:100F200066D069680907890F022942D00126360672
:100F30000228286805D0B0432860FFF781FC0446EA
:100F400033E0B0432860FFF77BFC074604E0FFF77F
:100F500077FCC01B022826D828688001F7D4E86AED
:100F6000216B000900010843E862A16AE06A0843B6
:100F700069687B22D2039143084368602868304344
:100F80002860FFF75DFC044604E0FFF759FC001BF6
:100F9000022808D828688001F7D529E0FFF750FC1F
:100FA000001B022801D90320FEBD28688001F5D46A
:100FB0001EE00128F8D06868E96A0322D203A36A18
:100FC00002409A420AD10907226B090F914205D1CA
:100FD0000F2189040840E16A884209D00120FEBD42
:100FE0000000010000100240007000408813000063
:100FF0000020F4E7094910B5401E884201D90120BC
:1010000010BD074C60610321081F00F001FE0020A5
:10101000A06107202061002010BD0000FFFFFF003D
:1010200000E000E070477047F8B502680446D069F8
:1010300011689368524D05402E462025002E68D039
:10104000DE07F60FFF2721370F40374375D0C7075C
:1010500006D0CF0504D501271762E26F3A43E26755
:10106000820708D5DA0706D0276802223A62E26FC3
:1010700004273A43E267420708D5DA0706D0236817
:1010800004221A62E26F02231A43E267020709D5BB
:101090000A462A40324305D0236808221A62E36FC9
:1010A0001343E367020508D54A0106D501222368E8
:1010B000D2021A62E26F2A43E267E26F002A30D05E
:1010C000800606D5880604D5216E002901D0204669
:1010D0008847E06F21688968490602D428210842C0
:1010E00024D0204600F0D0FB20688168490619D53D
:1010F0008168402291438160E06E002812D021492E
:101100004163E06EFFF792FA00280AD0E06E416B6F
:1011100006E0860611D58E060FD5216E1DE020460D
:101120008847F8BD2046FFF77EFFF8BD2046FFF751
:101130007AFF0020E067F8BDFFE7C60208D55B0232
:1011400006D50120000510622046FFF76BFFF2E78D
:10115000030605D50B0603D5616E0029DFD1EAE74A
:101160004006E8D54806E6D51368204640218B4363
:10117000136065670021616600F040F9DBE700005D
:101180000F0800007518000810B5040003D0606F48
:10119000002802D007E0012010BD00217020015579
:1011A000204600F027F8242060672068016849087D
:1011B00049000160204600F0CFFB0128ECD0606AB6
:1011C000002802D0204600F0BFFA206841680922BA
:1011D000D20291434160206881682A229143816054
:1011E00020680168012211430160204600F012FBD3
:1011F00010BD000010B586B0044614216846FEF705
:10120000D5FF17492068884227D1164882690121F5
:1012100089030A43826182690A4005924269C900D2
:101220000A43426140690840059003204002009053
:1012300002200190002002900320039001200490DE
:1012400009206946C006FFF743FA002202211B204D
:10125000FFF756FB1B20FFF747FB06B010BD000051
:101260000038014000100240F0B5836F202B54D1AC
:1012700000290AD0002A08D08568DC01A54206D1E1
:101280000369002B03D1CB0701D00120F0BD034639
:1012900060331E7C012E40D001261E74416501463C
:1012A00040310A834A830022FF260266A54204D108
:1012B0000569002D13D11A4D0AE07F27002D09D0B2
:1012C00001263607B5420CD10569002D05D03F2512
:1012D0008D8307E00569002D01D08F8302E08E83A6
:1012E00000E08A83C2672221816701688D68012638
:1012F00035438D608168A14202D1016900290AD07D
:10130000084901661A7400680168FF2221321143FE
:1013100001600020F0BD0449F3E70220F0BD0000A9
:10132000FF01000001190008A91800087047FFB567
:101330000446406F83B017460D4620285CD1002D2F
:101340000AD0002F08D0A168C001814207D12069CE
:10135000002804D1E80702D0012007B0F0BD2046E4
:1013600060300290007C012846D00298012101746F
:101370000020E06721206067FFF762FA26464036CA
:101380000190378277820120A1680003814202D157
:101390002069002802D02F46002511E000270FE029
:1013A00000228021204600F095FB002815D1002F57
:1013B00015D02168387808857F1C708A401E70829D
:1013C000708A019B002806980090E9D100224021F4
:1013D000204600F07FFB002808D00320BDE72888C6
:1013E0002168C005C00D0885AD1CE6E720206067B8
:1013F000029900200874B0E70220AEE77047FEE7CC
:1014000070B510A000F0DCFBFF25F5352846FFF78E
:1014100031F912A11248FEF7D4FE124C0BE0FEF790
:10142000B9FF08A000F0CCFB2846FFF723F90BA179
:101430000B48FEF7C6FE20600028F0D0FEF7AAFF9A
:1014400070BD000041542B47545345543D22495030
:1014500052464D54222C300D0A0000004F4B000024
:10146000300000200000002070B51CA000F0A8FB98
:10147000204C2046FFF7FEF81FA000F0A1FB2046FD
:10148000FFF7F8F820A12348FEF79BFE224D7D26AA
:101490003601286018E0FEF77DFF20A000F090FBE9
:1014A0003046FFF7E7F80DA000F08AFB2046FFF773
:1014B000E1F811A000F084FB2046FFF7DBF812A151
:1014C0001448FEF77EFE28600028E4D07D20C0008E
:1014D000FFF7D0F8FEF75EFF70BD000041542B6DA2
:1014E000697063616C6C3D312C2263746E6574228B
:1014F0000D0A0000B80B000041542B6D6970636148
:101500006C6C3F0D0A0000002B4D495043414C4C80
:101510003A203100300000200000002041542B6DA3
:10152000697063616C6C3D300D0A000070B5FEF7A8
:1015300031FF7D200001FFF79DF80CA000F040FB7B
:101540000EA11148FEF73DFE104C7D25ED002060F8
:1015500007E02846FFF78EF808A10B48FEF731FE9A
:1015600020600028F5D0FEF715FF70BD41542B4DCB
:10157000495043414C4C3D300D0A00002B4D495021
:1015800043414C4C3A203000300000200000002045
:1015900070B586B014216846FEF708FE23484269FC
:1015A0000121C9040A43426142690A400592426925
:1015B000C9000A43426142690A40059242694911E1
:1015C0000A434261406909260840F6060590002258
:1015D00021213046FFF72EF90120400300901448E6
:1015E00000240190694602941248FFF771F8212007
:1015F0000125009002946946019503943046FFF757
:1016000067F80C200090022001900294694604952E
:1016100003943046FFF75CF8002201210720FFF712
:101620006FF90720FFF760F906B070BD00100240A7
:10163000000021100008004810B50C480A4901605C
:10164000E1214902416000218160C1600161816145
:10165000C1610C22016242614162FFF795FD0028E1
:1016600001D0FEF769FF10BD00380140F8000020EE
:10167000704710B509240122E40611462046FFF701
:10168000D9F87D200001FEF7F5FF00220121204658
:10169000FFF7D0F810BD70477047000070B50446E2
:1016A000FEF778FE7D252D012846FEF7E3FF06A014
:1016B00000F086FA214609A000F082FA2846FEF7DB
:1016C000D9FFFEF767FE70BD41542B4D495053457D
:1016D0004E443D312C31350D0A00000025730000C9
:1016E00010B5FFF7B3F810BD70B598B03421684657
:1016F000FEF75CFD00240D940E940F941C2111A89C
:101700001094FEF753FD02251020099504900095D2
:10171000C0020A9005200126C0040B9003960C9687
:101720006846FFF765FA07200D900F9401210E958A
:1017300010940DA8FFF778F911A811961394FFF7EC
:10174000E3F818B070BD704710B5818CC90707D099
:1017500001684A6801235B049A43836A1A434A601A
:10176000818C890707D501684A6801231B049A43C5
:10177000C36A1A434A60818C490707D501684A68E1
:1017800001239B049A43036B1A434A60818C090727
:1017900007D501684A680123DB039A43436B1A4368
:1017A0004A60818CC90607D50268916801231B0332
:1017B0009943836B19439160818C890607D5016831
:1017C0008A6801235B039A43C36B1A438A60818C46
:1017D000490612D503685A6801210905046C8A4339
:1017E00022435A60026C8A4207D10268516803237F
:1017F0005B059943436C19435160818C090607D5F9
:1018000001684A680123DB04806C9A4302434A6002
:1018100010BD0000F8B500260446C667FFF710F8B3
:10182000054620680068124F000709D501212B46A4
:10183000002249052046009700F04CF900280DD100
:101840002068006840070BD501212B46002289053E
:101850002046009700F03EF9002801D00320F8BD93
:1018600020206067A067603426740020F8BD000067
:10187000FFFFFF0110B5406A0022014640314A8354
:101880004A82FFF7D0FB10BD01680A68FF232133AD
:101890009A430A6001688A68520852008A602021CF
:1018A000816700210166704710B5014640318B8B7E
:1018B000846F0268222C04D090690821084390614B
:1018C00010BD928C446D1A402280426D921C42657C
:1018D0004A8B521E4A83498B0029F1D101680A685C
:1018E000FF2321339A430A6001688A685208520034
:1018F0008A602021816700210166FFF717FD10BD76
:1019000010B5014640318B8B846F0268222C04D0C5
:10191000906908210843906110BD928C1A40436D74
:101920001A70426D521C42654A8B521E4A83498B83
:101930000029F1D101680A68FF2321339A430A6024
:1019400001688A68520852008A602021816700215C
:101950000166FFF7EBFC10BD70B504468068216995
:10196000E269084361690025114322680843116850
:101970004F4B19400143116021684868032212034C
:101980009043E26810434860A169206A22680843D6
:1019900091680B231B02994301439160454B01223F
:1019A00020684549120498420AD1086B8007800FCD
:1019B00023D0012814D0022814D003281CD10DE014
:1019C0003E4B984210D1086B03210904084014D003
:1019D000801A05D0801A05D090420DD102200CE06B
:1019E00004200AE0082008E03549884202D0354941
:1019F000884201D1002000E010200123E169DB03CF
:101A0000314E994229D1002806D0022807D0042857
:101A10001AD0082845D11DE0FFF790F816E061685C
:101A20002A4A48088018FEF763FB80B20146103945
:101A3000B14236D824490246491C0A400007410FEA
:101A400020681143C1602DE0FFF788F8616840000D
:101A50004A08E7E761684808E4E7002806D002285A
:101A600007D0042813D008281BD116E0FFF766F82A
:101A70000FE06168164A48088018FEF739FB80B20B
:101A800001461039B1420CD82168C8600AE0FFF75E
:101A900065F861684A081018EFE761684808C018DF
:101AA000EBE70125002020666066284670BD000037
:101AB000F369FFEF0038014000100240004400408D
:101AC00000480040004C0040EFFF00000024F400FC
:101AD00000127A00FFB581B005460F460446603516
:101AE0000A9E38E0701C36D0FEF7AAFE0499401A10
:101AF000B04221D8002E1FD02068016849072AD59E
:101B0000C069C043000526D401202168C0020862D4
:101B100020680168FF22A13291430160206881683A
:101B200049084900816020206067A067E0670020C5
:101B30002874032005B0F0BD20680168FF22A1329F
:101B40009143016020688168490849008160202034
:101B50006067A067EBE72068C1693846884305D015
:101B6000002103988142BDD00020E3E70121F8E77E
:101B700010B50848FFF758FA074809490278074B9B
:101B800008781A54401C0870012203490148FFF7E5
:101B90006BFB10BDF8000020080000203000002082
:101BA0001900002010B5054C02E00120FEF762FD8F
:101BB00020780128F9D1FEF75DFD10BD1A00002044
:101BC0000FB410B503A9044B044A029800F051F871
:101BD00010BC08BC04B01847451D00082C000020AC
:101BE000F8B5040C8BB2264682B25E430D0C10464B
:101BF000370C5843360480190021794116466E434C
:101C0000370C36048019794126466E438919F8BD90
:101C10008307FF22DB0E9A408907090E99400028AE
:101C200008DB830809489B001B1818689043084389
:101C3000186070470007000F0838830804489B00AD
:101C40001B18D86990430843D861704700E400E04E
:101C500000ED00E002E008C8121F08C1002AFAD116
:101C600070477047002001E001C1121F002AFBD11C
:101C70007047FFB581B00546002706E025280AD049
:101C8000049A039990476D1C7F1C28780028F5D191
:101C9000384605B0F0BD002269786D1C10462E292B
:101CA00013D1697804226D1C2A2909D102996D1C6F
:101CB00001C9029109E00A235843303808186D1C05
:101CC00029780B46303B092BF5D92B78002BDFD038
:101CD000632B07D0732B10D0049A184603999047B2
:101CE0007F1C2DE002996C460B782370091D029130
:101CF000002161706E46012104E0029940C9029101
:101D00000021C94352070AD5002400E0641C844224
:101D10000DDA8C42FADB325D002AF7D107E00024AD
:101D200000E0641C8C42FCDB305D0028F9D13F19D7
:101D300004E03078049A761C03999047641EF8D228
:101D40006D1CA2E713B5044B012269460348FFF757
:101D5000EEFA00981CBD0000FFFF0000F800002014
:101D6000FEF77CFDFFF7C0FCFFF712FCFFF764FCF9
:101D7000012210491048FFF777FAFFF713FFFFF72A
:101D800078FCFEF7DAFBFEF7D3FAFEF715FB00242A
:101D90007D25ED000748401CFFF780FC2846FEF734
:101DA00069FC641CE4B20A2CF4D9FEF791FBFFF73E
:101DB000BDFBFEE708000020F80000200000000046
:101DC00000000000010203040607080900000000EB
:101DD00001020304F41D0008000000203000000090
:101DE000541C0008241E0008300000204805000094
:101DF000641C0008000000000000000000313233C5
:101E00003435363738393130313131320000000065
:101E100001000000040000000000000000127A0031
:041E200000000000BE
:04000005080000C12E
:00000001FF
